{
  "contractName": "Lottery",
  "abi": [
    {
      "inputs": [
        {
          "internalType": "uint256",
          "name": "fee",
          "type": "uint256"
        }
      ],
      "stateMutability": "nonpayable",
      "type": "constructor"
    },
    {
      "inputs": [],
      "name": "admin",
      "outputs": [
        {
          "internalType": "address",
          "name": "",
          "type": "address"
        }
      ],
      "stateMutability": "view",
      "type": "function",
      "constant": true
    },
    {
      "inputs": [],
      "name": "betCount",
      "outputs": [
        {
          "internalType": "uint256",
          "name": "",
          "type": "uint256"
        }
      ],
      "stateMutability": "view",
      "type": "function",
      "constant": true
    },
    {
      "inputs": [],
      "name": "betSize",
      "outputs": [
        {
          "internalType": "uint256",
          "name": "",
          "type": "uint256"
        }
      ],
      "stateMutability": "view",
      "type": "function",
      "constant": true
    },
    {
      "inputs": [],
      "name": "currentState",
      "outputs": [
        {
          "internalType": "enum Lottery.State",
          "name": "",
          "type": "uint8"
        }
      ],
      "stateMutability": "view",
      "type": "function",
      "constant": true
    },
    {
      "inputs": [],
      "name": "houseFee",
      "outputs": [
        {
          "internalType": "uint256",
          "name": "",
          "type": "uint256"
        }
      ],
      "stateMutability": "view",
      "type": "function",
      "constant": true
    },
    {
      "inputs": [
        {
          "internalType": "uint256",
          "name": "",
          "type": "uint256"
        }
      ],
      "name": "players",
      "outputs": [
        {
          "internalType": "address payable",
          "name": "",
          "type": "address"
        }
      ],
      "stateMutability": "view",
      "type": "function",
      "constant": true
    },
    {
      "inputs": [],
      "name": "getPlayers",
      "outputs": [
        {
          "internalType": "address[]",
          "name": "",
          "type": "address[]"
        }
      ],
      "stateMutability": "view",
      "type": "function",
      "constant": true
    },
    {
      "inputs": [
        {
          "internalType": "uint256",
          "name": "count",
          "type": "uint256"
        },
        {
          "internalType": "uint256",
          "name": "size",
          "type": "uint256"
        }
      ],
      "name": "createBet",
      "outputs": [],
      "stateMutability": "nonpayable",
      "type": "function"
    },
    {
      "inputs": [],
      "name": "bet",
      "outputs": [],
      "stateMutability": "payable",
      "type": "function",
      "payable": true
    },
    {
      "inputs": [],
      "name": "cancel",
      "outputs": [],
      "stateMutability": "nonpayable",
      "type": "function"
    }
  ],
  "bytecode": "0x60806040526000600160006101000a81548160ff021916908360018111156200002d576200002c620001b4565b5b02179055503480156200003f57600080fd5b50604051620012c2380380620012c283398181016040528101906200006591906200011e565b600181118015620000765750606381105b620000b8576040517f08c379a0000000000000000000000000000000000000000000000000000000008152600401620000af9062000177565b60405180910390fd5b33600560006101000a81548173ffffffffffffffffffffffffffffffffffffffff021916908373ffffffffffffffffffffffffffffffffffffffff16021790555080600481905550506200022b565b600081519050620001188162000211565b92915050565b600060208284031215620001375762000136620001e3565b5b6000620001478482850162000107565b91505092915050565b60006200015f601e8362000199565b91506200016c82620001e8565b602082019050919050565b60006020820190508181036000830152620001928162000150565b9050919050565b600082825260208201905092915050565b6000819050919050565b7f4e487b7100000000000000000000000000000000000000000000000000000000600052602160045260246000fd5b600080fd5b7f6665652073686f756c64206265206265747765656e203120616e642039390000600082015250565b6200021c81620001aa565b81146200022857600080fd5b50565b611087806200023b6000396000f3fe6080604052600436106100915760003560e01c8063cf09449711610059578063cf0944971461014c578063ea8a1af014610177578063f71d96cb1461018e578063f851a440146101cb578063fff058e6146101f657610091565b80630c3f6acf146100965780630ed469b8146100c157806311610c25146100ec5780635d1d3e26146100f65780638b5b9ccc14610121575b600080fd5b3480156100a257600080fd5b506100ab61021f565b6040516100b89190610bd9565b60405180910390f35b3480156100cd57600080fd5b506100d6610232565b6040516100e39190610c54565b60405180910390f35b6100f4610238565b005b34801561010257600080fd5b5061010b610469565b6040516101189190610c54565b60405180910390f35b34801561012d57600080fd5b5061013661046f565b6040516101439190610bb7565b60405180910390f35b34801561015857600080fd5b50610161610579565b60405161016e9190610c54565b60405180910390f35b34801561018357600080fd5b5061018c61057f565b005b34801561019a57600080fd5b506101b560048036038101906101b091906109a7565b61076b565b6040516101c29190610b9c565b60405180910390f35b3480156101d757600080fd5b506101e06107aa565b6040516101ed9190610b81565b60405180910390f35b34801561020257600080fd5b5061021d600480360381019061021891906109d4565b6107d0565b005b600160009054906101000a900460ff1681565b60045481565b60018060009054906101000a900460ff16600181111561025b5761025a610ecd565b5b81600181111561026e5761026d610ecd565b5b146102ae576040517f08c379a00000000000000000000000000000000000000000000000000000000081526004016102a590610c34565b60405180910390fd5b60035434146102f2576040517f08c379a00000000000000000000000000000000000000000000000000000000081526004016102e990610bf4565b60405180910390fd5b6000339080600181540180825580915050600190039060005260206000200160009091909190916101000a81548173ffffffffffffffffffffffffffffffffffffffff021916908373ffffffffffffffffffffffffffffffffffffffff1602179055506002546000805490501415610466576000610371600254610914565b90506000818154811061038757610386610efc565b5b9060005260206000200160009054906101000a900473ffffffffffffffffffffffffffffffffffffffff1673ffffffffffffffffffffffffffffffffffffffff166108fc606460045460646103dc9190610d44565b6002546003546103ec9190610cea565b6103f69190610cea565b6104009190610cb9565b9081150290604051600060405180830381858888f1935050505015801561042b573d6000803e3d6000fd5b506000600160006101000a81548160ff0219169083600181111561045257610451610ecd565b5b02179055506000806104649190610954565b505b50565b60035481565b60606000808054905067ffffffffffffffff81111561049157610490610f2b565b5b6040519080825280602002602001820160405280156104bf5781602001602082028036833780820191505090505b50905060005b60008054905081101561057157600081815481106104e6576104e5610efc565b5b9060005260206000200160009054906101000a900473ffffffffffffffffffffffffffffffffffffffff1682828151811061052457610523610efc565b5b602002602001019073ffffffffffffffffffffffffffffffffffffffff16908173ffffffffffffffffffffffffffffffffffffffff1681525050808061056990610deb565b9150506104c5565b508091505090565b60025481565b60018060009054906101000a900460ff1660018111156105a2576105a1610ecd565b5b8160018111156105b5576105b4610ecd565b5b146105f5576040517f08c379a00000000000000000000000000000000000000000000000000000000081526004016105ec90610c34565b60405180910390fd5b600560009054906101000a900473ffffffffffffffffffffffffffffffffffffffff1673ffffffffffffffffffffffffffffffffffffffff163373ffffffffffffffffffffffffffffffffffffffff1614610685576040517f08c379a000000000000000000000000000000000000000000000000000000000815260040161067c90610c14565b60405180910390fd5b60005b60008054905081101561072f57600081815481106106a9576106a8610efc565b5b9060005260206000200160009054906101000a900473ffffffffffffffffffffffffffffffffffffffff1673ffffffffffffffffffffffffffffffffffffffff166108fc6003549081150290604051600060405180830381858888f1935050505015801561071b573d6000803e3d6000fd5b50808061072790610deb565b915050610688565b5060008061073d9190610954565b6000600160006101000a81548160ff0219169083600181111561076357610762610ecd565b5b021790555050565b6000818154811061077b57600080fd5b906000526020600020016000915054906101000a900473ffffffffffffffffffffffffffffffffffffffff1681565b600560009054906101000a900473ffffffffffffffffffffffffffffffffffffffff1681565b6000600160009054906101000a900460ff1660018111156107f4576107f3610ecd565b5b81600181111561080757610806610ecd565b5b14610847576040517f08c379a000000000000000000000000000000000000000000000000000000000815260040161083e90610c34565b60405180910390fd5b600560009054906101000a900473ffffffffffffffffffffffffffffffffffffffff1673ffffffffffffffffffffffffffffffffffffffff163373ffffffffffffffffffffffffffffffffffffffff16146108d7576040517f08c379a00000000000000000000000000000000000000000000000000000000081526004016108ce90610c14565b60405180910390fd5b826002819055508160038190555060018060006101000a81548160ff0219169083600181111561090a57610909610ecd565b5b0217905550505050565b600081424460405160200161092a929190610b55565b6040516020818303038152906040528051906020012060001c61094d9190610e3e565b9050919050565b50805460008255906000526020600020908101906109729190610975565b50565b5b8082111561098e576000816000905550600101610976565b5090565b6000813590506109a18161103a565b92915050565b6000602082840312156109bd576109bc610f5a565b5b60006109cb84828501610992565b91505092915050565b600080604083850312156109eb576109ea610f5a565b5b60006109f985828601610992565b9250506020610a0a85828601610992565b9150509250929050565b6000610a208383610a3b565b60208301905092915050565b610a3581610d8a565b82525050565b610a4481610d78565b82525050565b610a5381610d78565b82525050565b6000610a6482610c7f565b610a6e8185610c97565b9350610a7983610c6f565b8060005b83811015610aaa578151610a918882610a14565b9750610a9c83610c8a565b925050600181019050610a7d565b5085935050505092915050565b610ac081610dd9565b82525050565b6000610ad3602183610ca8565b9150610ade82610f5f565b604082019050919050565b6000610af6600a83610ca8565b9150610b0182610fae565b602082019050919050565b6000610b19602183610ca8565b9150610b2482610fd7565b604082019050919050565b610b3881610dcf565b82525050565b610b4f610b4a82610dcf565b610e34565b82525050565b6000610b618285610b3e565b602082019150610b718284610b3e565b6020820191508190509392505050565b6000602082019050610b966000830184610a4a565b92915050565b6000602082019050610bb16000830184610a2c565b92915050565b60006020820190508181036000830152610bd18184610a59565b905092915050565b6000602082019050610bee6000830184610ab7565b92915050565b60006020820190508181036000830152610c0d81610ac6565b9050919050565b60006020820190508181036000830152610c2d81610ae9565b9050919050565b60006020820190508181036000830152610c4d81610b0c565b9050919050565b6000602082019050610c696000830184610b2f565b92915050565b6000819050602082019050919050565b600081519050919050565b6000602082019050919050565b600082825260208201905092915050565b600082825260208201905092915050565b6000610cc482610dcf565b9150610ccf83610dcf565b925082610cdf57610cde610e9e565b5b828204905092915050565b6000610cf582610dcf565b9150610d0083610dcf565b9250817fffffffffffffffffffffffffffffffffffffffffffffffffffffffffffffffff0483118215151615610d3957610d38610e6f565b5b828202905092915050565b6000610d4f82610dcf565b9150610d5a83610dcf565b925082821015610d6d57610d6c610e6f565b5b828203905092915050565b6000610d8382610daf565b9050919050565b6000610d9582610daf565b9050919050565b6000819050610daa82611026565b919050565b600073ffffffffffffffffffffffffffffffffffffffff82169050919050565b6000819050919050565b6000610de482610d9c565b9050919050565b6000610df682610dcf565b91507fffffffffffffffffffffffffffffffffffffffffffffffffffffffffffffffff821415610e2957610e28610e6f565b5b600182019050919050565b6000819050919050565b6000610e4982610dcf565b9150610e5483610dcf565b925082610e6457610e63610e9e565b5b828206905092915050565b7f4e487b7100000000000000000000000000000000000000000000000000000000600052601160045260246000fd5b7f4e487b7100000000000000000000000000000000000000000000000000000000600052601260045260246000fd5b7f4e487b7100000000000000000000000000000000000000000000000000000000600052602160045260246000fd5b7f4e487b7100000000000000000000000000000000000000000000000000000000600052603260045260246000fd5b7f4e487b7100000000000000000000000000000000000000000000000000000000600052604160045260246000fd5b600080fd5b7f63616e206f6e6c79206265742065786163746c7920746865206265742073697a60008201527f6500000000000000000000000000000000000000000000000000000000000000602082015250565b7f6f6e6c792061646d696e00000000000000000000000000000000000000000000600082015250565b7f63757272656e7420737461746520646f6573206e6f7420616c6c6f772074686960008201527f7300000000000000000000000000000000000000000000000000000000000000602082015250565b6002811061103757611036610ecd565b5b50565b61104381610dcf565b811461104e57600080fd5b5056fea264697066735822122060639099664ef6487d7d81e65482bf56bb3ba2154afb3cc4a687a1aeae546d9164736f6c63430008060033",
  "immutableReferences": {},
  "source": "pragma solidity ^0.8.0;\n\ncontract Lottery {\n    enum State {\n        IDLE,\n        BETTING\n    }\n    address payable[] public players;\n    State public currentState = State.IDLE;\n    uint public betCount;\n    uint public betSize;\n    uint public houseFee;\n    address public admin;\n\n    constructor(uint fee) {\n        require(fee > 1 && fee < 99, 'fee should be between 1 and 99');\n        admin = msg.sender;\n        houseFee = fee;\n    }\n\n    function getPlayers()\n      external\n      view\n      returns(address[] memory) {\n      address[] memory _players = new address[](players.length);\n      for(uint i = 0; i < players.length; i++) {\n          _players[i] = players[i];\n      }\n      return _players;\n    }\n\n    function createBet(uint count, uint size)\n        external\n        inState(State.IDLE)\n        onlyAdmin() {\n        betCount = count;\n        betSize = size;\n        currentState = State.BETTING;\n    }\n\n    function bet()\n        external\n        payable\n        inState(State.BETTING) {\n        require(msg.value == betSize, 'can only bet exactly the bet size');\n        players.push(payable(msg.sender));\n        if(players.length == betCount ) {\n            uint winner = _randomModulo(betCount);\n            players[winner].transfer((betSize * betCount) * (100 - houseFee) / 100);\n            currentState = State.IDLE;\n            delete players;\n        }\n    }\n\n    function cancel()\n        external\n        inState(State.BETTING)\n        onlyAdmin() {\n        for(uint i = 0; i < players.length; i++) {\n            players[i].transfer(betSize);\n        }\n        delete players;\n        currentState = State.IDLE;\n    }\n\n    function _randomModulo(uint modulo) view internal returns(uint) {\n        return uint(keccak256(abi.encodePacked(block.timestamp, block.difficulty))) % modulo;\n    }\n\n    modifier inState(State state) {\n        require(state == currentState, 'current state does not allow this');\n        _;\n    }\n\n    modifier onlyAdmin() {\n        require(msg.sender == admin, 'only admin');\n        _;\n    }\n}\n",
  "sourcePath": "/Users/pielvisoftvision/workspace/lotteryDApp/smart-contracts/contracts/Lottery.sol",
  "compiler": {
    "name": "solc",
    "version": "0.8.6+commit.11564f7e.Emscripten.clang"
  },
  "schemaVersion": "3.4.1",
  "updatedAt": "2021-06-26T22:10:16.504Z",
  "networkType": "ethereum",
  "devdoc": {
    "kind": "dev",
    "methods": {},
    "version": 1
  },
  "userdoc": {
    "kind": "user",
    "methods": {},
    "version": 1
  }
}